:020000040800F2
:10000000C80600208901000881100008831000083C
:10001000871000088B1000088F10000800000000F7
:100020000000000000000000000000009310000825
:1000300095100008000000009710000899100008B3
:10004000A3010008A3010008A3010008A301000800
:10005000A3010008A3010008A3010008A3010008F0
:10006000A3010008A3010008A3010008A3010008E0
:10007000A3010008A3010008A3010008A3010008D0
:10008000A3010008A3010008A3010008A3010008C0
:10009000A3010008A3010008A3010008A3010008B0
:1000A000A3010008A3010008A3010008A3010008A0
:1000B000A3010008A3010008A3010008A301000890
:1000C000A3010008A3010008A3010008A301000880
:1000D000A3010008A3010008A3010008A301000870
:1000E000A3010008A3010008A301000800F002F822
:1000F00000F03AF80AA090E8000C82448344AAF188
:100100000107DA4501D100F02FF8AFF2090EBAE885
:100110000F0013F0010F18BFFB1A43F0010318473B
:10012000D0110000F0110000103A24BF78C878C147
:10013000FAD8520724BF30C830C144BF04680C60ED
:10014000704700000023002400250026103A28BF35
:1001500078C1FBD8520728BF30C148BF0B60704739
:100160001FB51FBD10B510BD01F08BF81146FFF78C
:10017000F7FF00F06FFE01F0A9F803B4FFF7F2FFFC
:1001800003BC01F0ADF8000009488047094800476A
:10019000FEE7FEE7FEE7FEE7FEE7FEE7FEE7FEE737
:1001A000FEE7FEE704480549054A064B7047000094
:1001B000A1090008ED000008C8000020C8060020C2
:1001C000C8020020C802002010B50446CA48844274
:1001D00008D10121042000F027FB0021042000F0B9
:1001E00023FB46E0C548844208D10121082000F0E5
:1001F0001BFB0021082000F017FB3AE0C0488442B6
:1002000008D10121102000F00FFB0021102000F088
:100210000BFB2EE0BB48844208D10121202000F0D6
:1002200003FB0021202000F0FFFA22E0B6488442C0
:1002300008D10121402000F0F7FA0021402000F011
:10024000F3FA16E0B148844208D10121802000F081
:10025000EBFA0021802000F0E7FA0AE0AC48844283
:1002600007D10121801500F0DFFA0021A01500F070
:10027000DBFA10BD10B50121084600F0D5FA0021C7
:10028000012000F0D1FA10BD2DE9F0410246002511
:100290000026002000230024002791F803C00CF062
:1002A0000F0591F803C01CF0100F03D091F802C0A5
:1002B0004CEA050591F800C0BCF1000F31D014687C
:1002C00000202BE04FF0010C0CFA00F3B1F800C055
:1002D0000CEA03069E4220D183004FF00F0C0CFA6B
:1002E00003F7BC4305FA03FC4CEA040491F803C08D
:1002F000BCF1280F06D14FF0010C0CFA00FCC2F83B
:1003000014C00AE091F803C0BCF1480F05D14FF0CA
:10031000010C0CFA00FCC2F810C0401C0828D1D314
:100320001460B1F800C0BCF1FF0F34DD5468002048
:100330002EE000F1080C4FF0010808FA0CF3B1F8B8
:1003400000C00CEA03069E4221D183004FF00F0C3F
:100350000CFA03F7BC4305FA03FC4CEA040491F8D9
:1003600003C0BCF1280F05D100F1080C08FA0CF805
:10037000C2F8148091F803C0BCF1480F07D100F116
:10038000080C4FF0010808FA0CF8C2F81080401C65
:100390000828CED35460BDE8F0814FF6FF7101808C
:1003A000022181700421C1707047024600209368C9
:1003B0000B4201D0012000E0002070470146886810
:1003C00080B2704702460020D3680B4201D0012062
:1003D00000E0002070470146C86880B270470161A4
:1003E0007047416170470AB1016100E041617047A7
:1003F000C16070474FF480320A438261816182613B
:1004000082698269704702460020424B18684FF6A5
:100410008073184040EA021008433E4B1860704752
:100420003D49C8617047F0B50A4600230024002109
:10043000002500F00046B6F1004F02D1354EF169BB
:1004400001E0344E7168C0F3034583B200F44016F6
:10045000B6F5401F08D121F070612E4E766826F067
:1004600070662C4F7E6012E000F48016B6F5801F97
:1004700006D1032606FA05F4A14341F0706106E0B7
:10048000460D360103FA06F6B14341F0706122B120
:10049000460D360103FA06F6314300F00046B6F188
:1004A000004F02D11B4EF16101E01A4E7160F0BDA8
:1004B00030B500228B071C0F0F2303FA04F2154BF3
:1004C00008338C1053F824309343124C08348D10A9
:1004D00044F8253023468C1053F824308C07240F21
:1004E00000FA04F423430B4C08348D1044F82530F3
:1004F00030BD0A490860704700080140000C014007
:10050000001001400014014000180140001C01408F
:10051000002001400000014000002042DC00204299
:10052000DD48006840F00100DB490860084640688B
:10053000DA490840D849486008460068D849084068
:10054000D54908600846006820F480200860084605
:10055000406820F4FE0048604FF41F008860704738
:10056000CD49096821F48031CB4A116011460968F0
:1005700021F480211160B0F5803F03D0B0F5802FC9
:100580000ED106E0C449096841F48031C24A1160C5
:1005900007E0C149096841F4A021BF4A116000E0A9
:1005A00000BF00BF704710B50146002200230020A5
:1005B0004A11012A02D1B84C236806E0022A02D16E
:1005C000B54C236A01E0B44C636A01F01F020124B8
:1005D00094401C4201D0012000E0002010BD38B53D
:1005E000002000900024002500BF3120FFF7DBFF32
:1005F00005460098401C00900098B0F5A06F01D00F
:10060000002DF2D03120FFF7CEFF08B1012400E029
:100610000024204638BD014600209F4A106820F083
:10062000F80040EAC100106070479E4908607047BA
:1006300002460020984B586820F47C1042EA0103DF
:100640001843954B586070479649086670470146B5
:100650000020914A506820F0030008435060704722
:100660008D48406800F00C007047014600208A4A1F
:10067000506820F0F00008435060704701460020A9
:10068000854A506820F4E060084350607047014696
:100690000020814A506820F4605040EAC100506058
:1006A000704729B17C4A527A02437B4B5A7204E06C
:1006B000794A527A8243784B5A7270477A49086075
:1006C000704701460020744A506820F440400843B7
:1006D000506070470021754A11706F4A82F82010EF
:1006E000012802D0042808D103E001216F4A1170CB
:1006F00004E005216D4A117000E000BF00BF7047A3
:100700006B49086070476449096A0143624A116293
:100710007047674944390860704730B500210022AE
:10072000002400235C4D6D6805F00C0121B1042903
:1007300005D0082923D105E05E4D056022E05D4D1E
:1007400005601FE0544D6D6805F47012524D6D68E0
:1007500005F48034022505EB92421CB9564D5543F1
:1007600005600BE04C4D6D6815F4003F03D0524D11
:100770005543056002E04F4D5543056002E04D4D85
:10078000056000BF00BF444D6D6805F0F001090928
:100790004A4D6B5C0568DD4045603F4D6D6805F472
:1007A000E061090A454D6B5C4568DD4085603A4D66
:1007B0006D6805F46051C90A404D6B5C4568DD40C9
:1007C000C560354D6D6805F44041890B3C4D6B5C4F
:1007D000C568B5FBF3F5056130BD29B12E4A5269F4
:1007E00002432D4B5A6104E02B4A526982432A4B43
:1007F0005A61704729B1284A92690243264B9A618F
:1008000004E0254A92698243234B9A61704729B1DB
:10081000214AD2690243204BDA6104E01E4AD269C0
:1008200082431D4BDA61704729B11B4AD2680243EB
:10083000194BDA6004E0184AD2688243164BDA603A
:10084000704729B1144A12690243134B1A6104E03C
:10085000114A12698243104B1A617047144940399A
:10086000086070470F49C86470470B49C8717047EA
:100870000948406A40F08070074948627047014665
:100880000020054A92680A4201D0012000E00020C1
:100890007047014988727047001002400000FFF85D
:1008A000FFFFF6FE00004242D80042422010024004
:1008B0008004424200127A0000093D00000000203E
:1008C000100000200CB50020019000906B480068DB
:1008D00040F480306949086000BF6848006800F44F
:1008E000003000900198401C0190009818B90198C0
:1008F000B0F5A06FF1D16148006810F4003F02D05C
:100900000120009001E0002000900098012842D1D1
:100910005B48006840F010005949086008460068CC
:1009200020F0030008600846006840F002000860FC
:100930005248406851494860084640684860084647
:10094000406840F4806048600846406820F47C10AD
:1009500048600846406840F4E8104860084600686F
:1009600040F08070086000BF4448006810F0007FCD
:10097000FAD04248406820F00300404948600846E9
:10098000406840F00200486000BF3C48406800F00A
:100990000C000828F9D10CBD10B5FFF793FF10BD6E
:1009A00010B53648006840F0010034490860084638
:1009B0004068344908403149486008460068324977
:1009C00008402E4908600846006820F4802008602E
:1009D0000846406820F4FE0048604FF41F0088601D
:1009E000FFF7DAFF4FF000602849086010BD10B52E
:1009F000002100200022214B5B6803F00C0121B193
:100A0000042906D0082928D107E0214B214C236076
:100A100027E01F4B1F4C236023E0184B5B6803F457
:100A20007010164B5B6803F48032022303EB904096
:100A300022B9194B4343174C23600DE00F4B5B6801
:100A400013F4003F04D0144B4343124C236003E0E3
:100A50000F4B43430F4C236003E00D4B0D4C2360C1
:100A600000BF00BF054B5B68C3F303130B4CE15C95
:100A7000084B1B68CB40074C236010BD00100240A0
:100A8000002002400000FFF8FFFFF6FE08ED00E046
:100A900000127A001400002000093D001800002018
:100AA00008B501210420FFF7A5FEE020ADF8000005
:100AB00003208DF8020010208DF80300694691484C
:100AC000FFF7E2FB01210820FFF794FE0320ADF8B9
:100AD00000008DF8020028208DF8030069468A483E
:100AE000FFF7D2FB08BD08B501210420FFF782FE05
:100AF0001020ADF800008DF8030001208DF80200F1
:100B000069468048FFF7C0FB01210820FFF772FE0D
:100B100040F68450ADF8000010208DF8030001204D
:100B20008DF8020069467848FFF7AEFB1021754842
:100B3000FFF755FC04217448FFF751FC4FF4806126
:100B40007148FFF74CFC4FF400616F48FFF747FC1A
:100B500080216D48FFF743FC80216B48FFF73FFC85
:100B60004FF480716848FFF73AFC08BD01B502E018
:100B70000098401E009000980028F9D108BD10B5DB
:100B800020216048FFF72BFC40215E48FFF729FC3D
:100B900080215C48FFF725FC02215B48FFF705FC3C
:100BA00001280AD14CF25030FFF7E0FF02215648ED
:100BB000FFF7FBFB012812D110BD01215248FFF7BE
:100BC000F4FB01280BD14CF25030FFF7CFFF01218D
:100BD0004D48FFF7EAFB012801D10620ECE7202170
:100BE0004848FFF7FEFB40214648FFF7F8FB80210D
:100BF0004448FFF7F6FB02214348FFF7D6FB0128E4
:100C00000BD14CF25030FFF7B1FF02213E48FFF705
:100C1000CCFB012813D10220CEE701213A48FFF78F
:100C2000C4FB01280BD14CF25030FFF79FFF01218C
:100C30003548FFF7BAFB012801D10520BCE7202188
:100C40003048FFF7CEFB40212E48FFF7CAFB80213A
:100C50002C48FFF7C4FB02212B48FFF7A6FB012815
:100C60000BD14CF25030FFF781FF02212648FFF7ED
:100C70009CFB012813D103209EE701212248FFF7A6
:100C800094FB01280BD14CF25030FFF76FFF01218C
:100C90001D48FFF78AFB012801D104208CE72021A1
:100CA0001848FFF79CFB40211648FFF798FB80216E
:100CB0001448FFF794FB02211348FFF776FB012845
:100CC0000BD14CF25030FFF751FF02210E48FFF7D5
:100CD0006CFB012813D100206EE701210A48FFF7C1
:100CE00064FB01280BD14CF25030FFF73FFF01218C
:100CF0000548FFF75AFB012801D100205CE70020DE
:100D00005AE7000000080140000C014008B501212D
:100D10000420FFF76FFD4FF48050ADF80000102065
:100D20008DF8030001208DF8020069464648FFF760
:100D3000ABFA01210820FFF75DFD4FF49050ADF8AC
:100D4000000010208DF8030001208DF80200694694
:100D50003E48FFF799FA01211020FFF74BFD4FF4B1
:100D6000C040ADF8000010208DF8030001208DF880
:100D7000020069463648FFF787FA08BD2DE9F041C1
:100D800004460D4645EA0426002726E016F4004FE7
:100D90000FD04FF480512C48FFF721FB4FF48051C6
:100DA0002A48FFF71EFB4FF480512848FFF717FB36
:100DB0000EE04FF480512448FFF713FB4FF48051AD
:100DC0002248FFF70EFB4FF480512048FFF707FB46
:100DD0004FF6FF7000EA46067F1C102FD6DBBDE8F9
:100DE000F0812DE9F04104460D4645EA042600272E
:100DF00026E016F4004F0FD04FF480411448FFF75F
:100E0000EEFA4FF400511248FFF7EBFA4FF400519D
:100E10000F48FFF7E4FA0EE04FF480410C48FFF76B
:100E2000E0FA4FF400510A48FFF7DBFA4FF40051A3
:100E30000748FFF7D4FA4FF6FF7000EA46067F1C1A
:100E4000102FD6DBBDE8F08100080140000C014006
:100E50000010014088B00020079001240125039074
:100E6000032002900720019002200090FFF798FDD8
:100E700000F016F9FFF74AFFFFF712FEFFF733FE07
:100E8000FFF77DFE0446E3E0724807687248D0F839
:100E900000807248D0F800907148D0F800A000F0AF
:100EA00043F900F098F96E48D0F800B06B4800683C
:100EB0000690694800680590664800680490654897
:100EC000006887420BD164480068804507D16348B9
:100ED0000068814503D16248006882455DD0012DDC
:100EE00016D1022E02D0032E07D105E05D4800681E
:100EF000401C5C4908600AE009E00020594908608C
:100F000059490860594908605949086000BF00BF45
:100F1000012D04D0022D15D0032D32D122E0554AE7
:100F2000524B1B68D15C524B1B68D05CFFF726FF0D
:100F3000504A4C4B1B68D15C4B4B1B68D05CFFF795
:100F400050FF29E04B4B069A995C1A4612F80B00A9
:100F5000FFF714FF474B049A995C059A985CFFF7DA
:100F600040FF19E0434B009A995C019A985CFFF7A7
:100F700038FF404B029A995C039A985CFFF7FEFE9B
:100F80000AE03C4AD1781078FFF72BFF394A917874
:100F9000D079FFF7F3FE00BF00BFFFF7F0FD044676
:100FA0000798A04253D0072C30D2DFE804F02F047A
:100FB0000E181E242900032D01DA6D1C00E0012506
:100FC00010212D48FFF70DFA40E0032E01DA761CC0
:100FD00000E0012604212948FFF703FA36E04FF428
:100FE00080612648FFF7FDF930E04FF400612348A7
:100FF000FFF7F7F92AE080212048FFF7F2F925E012
:101000004FF480711D48FFF7ECF91FE010211A48DA
:10101000FFF7E5F904211948FFF7E1F94FF4806182
:101020001648FFF7DCF94FF400611448FFF7D7F9D1
:1010300080211248FFF7D3F980211048FFF7CFF93C
:101040004FF480710D48FFF7CAF900BF00BF079445
:101050001AE700003C000020400000204C00002067
:101060005000002054000020580000205C000020A8
:10107000600000202800002000080140000C014012
:10108000704700BFFEE700BFFEE700BFFEE700BFFE
:10109000FEE770477047704710B500F037F810BD95
:1010A00030B566480068664AB0FBF2F1481EB0F100
:1010B000807F01D301201BE0481E4FF0E0225061E9
:1010C00050170F22002807DA13071D0E5D4B00F0A2
:1010D0000F04241F1D5503E013071C0E5A4B1C540C
:1010E00000BF00204FF0E022906107201061002037
:1010F00008B100BFFEE730BD01B554490098086053
:1011000000BF524800680028FBD108BD5048006865
:10111000401C4F4908604D48006820B14B480068AA
:10112000401E4A490860704749480068444988425F
:1011300007D900204649086046480068401C4549D8
:101140000860444800680A2807D300204149086025
:1011500041480068401C404908603F480068062834
:1011600007D300203C4908603C480068401C3B49CC
:1011700008603A4800680A2807D300203749086009
:1011800037480068401C3649086035480068062822
:1011900007D300203249086032480068401C3149BA
:1011A0000860304800680A2807D300202D490860ED
:1011B0002D480068401C2C4908602A480068042813
:1011C00008D329480068022804D300202549086074
:1011D00025490860704725480068092807D900207C
:1011E0002249086022480068401C214908602048C4
:1011F0000068062807D300201D4908601D480068C4
:10120000401C1C4908601B480068092807D90020B9
:101210001849086018480068401C174908601648BB
:101220000068092808D313480068092804D300205F
:10123000114908600F490860704700001400002041
:1012400040420F0018ED00E000E400E064000020E0
:10125000380000203C000020400000204C0000200E
:1012600050000020440000204800002054000020CE
:10127000580000205C00002060000020704770478C
:101280007047754600F028F8AE460500694653469B
:1012900020F00700854618B020B5FEF783FFBDE8B3
:1012A00020404FF000064FF000074FF000084FF0CD
:1012B000000B21F00701AC46ACE8C009ACE8C0095E
:1012C000ACE8C009ACE8C0098D4670470446AFF3EE
:1012D00000802046FEF751FF00487047680000205C
:1012E00001491820ABBEFEE726000200704700004F
:1012F000101300080000002068000000280100080A
:10130000781300086800002060060000440100080F
:10131000000000000102030401020304060708099B
:101320000204060800A24A040000000000000000B9
:1013300001020304060708093F065B4F666D7D073F
:101340007F6F777C395E797100000000000000003B
:101350000000000005000000010000000600000081
:101360000500000000000000000000000000000078
:08137000000000000000000075
:040000050800018965
:00000001FF
