:020000040800F2
:10000000D0060020890100083116000833160008C8
:10001000371600083B1600083F16000800000000D5
:10002000000000000000000000000000431600086F
:100030004516000800000000471600084916000891
:10004000A3010008A3010008A3010008A301000800
:10005000A3010008A3010008A3010008A3010008F0
:10006000A3010008A3010008A3010008A3010008E0
:10007000A3010008A3010008A3010008A3010008D0
:10008000A3010008A3010008A3010008A3010008C0
:10009000A3010008A3010008A3010008A3010008B0
:1000A000A3010008A3010008A3010008A3010008A0
:1000B000A3010008A3010008A3010008A301000890
:1000C000A3010008A3010008A3010008A301000880
:1000D000A3010008A3010008A3010008A301000870
:1000E000A3010008A3010008A301000800F002F822
:1000F00000F03AF80AA090E8000C82448344AAF188
:100100000107DA4501D100F02FF8AFF2090EBAE885
:100110000F0013F0010F18BFFB1A43F0010318473B
:10012000F417000014180000103A24BF78C878C1F2
:10013000FAD8520724BF30C830C144BF04680C60ED
:10014000704700000023002400250026103A28BF35
:1001500078C1FBD8520728BF30C148BF0B60704739
:100160001FB51FBD10B510BD01F09DFB1146FFF777
:10017000F7FF00F06FFE01F0BBFB03B4FFF7F2FFE7
:1001800003BC01F0BFFB0000094880470948004755
:10019000FEE7FEE7FEE7FEE7FEE7FEE7FEE7FEE737
:1001A000FEE7FEE704480549054A064B7047000094
:1001B000A1090008ED000008D0000020D0060020B2
:1001C000D0020020D002002010B50446CA48844264
:1001D00008D10121042000F027FB0021042000F0B9
:1001E00023FB46E0C548844208D10121082000F0E5
:1001F0001BFB0021082000F017FB3AE0C0488442B6
:1002000008D10121102000F00FFB0021102000F088
:100210000BFB2EE0BB48844208D10121202000F0D6
:1002200003FB0021202000F0FFFA22E0B6488442C0
:1002300008D10121402000F0F7FA0021402000F011
:10024000F3FA16E0B148844208D10121802000F081
:10025000EBFA0021802000F0E7FA0AE0AC48844283
:1002600007D10121801500F0DFFA0021A01500F070
:10027000DBFA10BD10B50121084600F0D5FA0021C7
:10028000012000F0D1FA10BD2DE9F0410246002511
:100290000026002000230024002791F803C00CF062
:1002A0000F0591F803C01CF0100F03D091F802C0A5
:1002B0004CEA050591F800C0BCF1000F31D014687C
:1002C00000202BE04FF0010C0CFA00F3B1F800C055
:1002D0000CEA03069E4220D183004FF00F0C0CFA6B
:1002E00003F7BC4305FA03FC4CEA040491F803C08D
:1002F000BCF1280F06D14FF0010C0CFA00FCC2F83B
:1003000014C00AE091F803C0BCF1480F05D14FF0CA
:10031000010C0CFA00FCC2F810C0401C0828D1D314
:100320001460B1F800C0BCF1FF0F34DD5468002048
:100330002EE000F1080C4FF0010808FA0CF3B1F8B8
:1003400000C00CEA03069E4221D183004FF00F0C3F
:100350000CFA03F7BC4305FA03FC4CEA040491F8D9
:1003600003C0BCF1280F05D100F1080C08FA0CF805
:10037000C2F8148091F803C0BCF1480F07D100F116
:10038000080C4FF0010808FA0CF8C2F81080401C65
:100390000828CED35460BDE8F0814FF6FF7101808C
:1003A000022181700421C1707047024600209368C9
:1003B0000B4201D0012000E0002070470146886810
:1003C00080B2704702460020D3680B4201D0012062
:1003D00000E0002070470146C86880B270470161A4
:1003E0007047416170470AB1016100E041617047A7
:1003F000C16070474FF480320A438261816182613B
:1004000082698269704702460020424B18684FF6A5
:100410008073184040EA021008433E4B1860704752
:100420003D49C8617047F0B50A4600230024002109
:10043000002500F00046B6F1004F02D1354EF169BB
:1004400001E0344E7168C0F3034583B200F44016F6
:10045000B6F5401F08D121F070612E4E766826F067
:1004600070662C4F7E6012E000F48016B6F5801F97
:1004700006D1032606FA05F4A14341F0706106E0B7
:10048000460D360103FA06F6B14341F0706122B120
:10049000460D360103FA06F6314300F00046B6F188
:1004A000004F02D11B4EF16101E01A4E7160F0BDA8
:1004B00030B500228B071C0F0F2303FA04F2154BF3
:1004C00008338C1053F824309343124C08348D10A9
:1004D00044F8253023468C1053F824308C07240F21
:1004E00000FA04F423430B4C08348D1044F82530F3
:1004F00030BD0A490860704700080140000C014007
:10050000001001400014014000180140001C01408F
:10051000002001400000014000002042DC00204299
:10052000DD48006840F00100DB490860084640688B
:10053000DA490840D849486008460068D849084068
:10054000D54908600846006820F480200860084605
:10055000406820F4FE0048604FF41F008860704738
:10056000CD49096821F48031CB4A116011460968F0
:1005700021F480211160B0F5803F03D0B0F5802FC9
:100580000ED106E0C449096841F48031C24A1160C5
:1005900007E0C149096841F4A021BF4A116000E0A9
:1005A00000BF00BF704710B50146002200230020A5
:1005B0004A11012A02D1B84C236806E0022A02D16E
:1005C000B54C236A01E0B44C636A01F01F020124B8
:1005D00094401C4201D0012000E0002010BD38B53D
:1005E000002000900024002500BF3120FFF7DBFF32
:1005F00005460098401C00900098B0F5A06F01D00F
:10060000002DF2D03120FFF7CEFF08B1012400E029
:100610000024204638BD014600209F4A106820F083
:10062000F80040EAC100106070479E4908607047BA
:1006300002460020984B586820F47C1042EA0103DF
:100640001843954B586070479649086670470146B5
:100650000020914A506820F0030008435060704722
:100660008D48406800F00C007047014600208A4A1F
:10067000506820F0F00008435060704701460020A9
:10068000854A506820F4E060084350607047014696
:100690000020814A506820F4605040EAC100506058
:1006A000704729B17C4A527A02437B4B5A7204E06C
:1006B000794A527A8243784B5A7270477A49086075
:1006C000704701460020744A506820F440400843B7
:1006D000506070470021754A11706F4A82F82010EF
:1006E000012802D0042808D103E001216F4A1170CB
:1006F00004E005216D4A117000E000BF00BF7047A3
:100700006B49086070476449096A0143624A116293
:100710007047674944390860704730B500210022AE
:10072000002400235C4D6D6805F00C0121B1042903
:1007300005D0082923D105E05E4D056022E05D4D1E
:1007400005601FE0544D6D6805F47012524D6D68E0
:1007500005F48034022505EB92421CB9564D5543F1
:1007600005600BE04C4D6D6815F4003F03D0524D11
:100770005543056002E04F4D5543056002E04D4D85
:10078000056000BF00BF444D6D6805F0F001090928
:100790004A4D6B5C0568DD4045603F4D6D6805F472
:1007A000E061090A454D6B5C4568DD4085603A4D66
:1007B0006D6805F46051C90A404D6B5C4568DD40C9
:1007C000C560354D6D6805F44041890B3C4D6B5C4F
:1007D000C568B5FBF3F5056130BD29B12E4A5269F4
:1007E00002432D4B5A6104E02B4A526982432A4B43
:1007F0005A61704729B1284A92690243264B9A618F
:1008000004E0254A92698243234B9A61704729B1DB
:10081000214AD2690243204BDA6104E01E4AD269C0
:1008200082431D4BDA61704729B11B4AD2680243EB
:10083000194BDA6004E0184AD2688243164BDA603A
:10084000704729B1144A12690243134B1A6104E03C
:10085000114A12698243104B1A617047144940399A
:10086000086070470F49C86470470B49C8717047EA
:100870000948406A40F08070074948627047014665
:100880000020054A92680A4201D0012000E00020C1
:100890007047014988727047001002400000FFF85D
:1008A000FFFFF6FE00004242D80042422010024004
:1008B0008004424200127A0000093D00000000203E
:1008C000100000200CB50020019000906B480068DB
:1008D00040F480306949086000BF6848006800F44F
:1008E000003000900198401C0190009818B90198C0
:1008F000B0F5A06FF1D16148006810F4003F02D05C
:100900000120009001E0002000900098012842D1D1
:100910005B48006840F010005949086008460068CC
:1009200020F0030008600846006840F002000860FC
:100930005248406851494860084640684860084647
:10094000406840F4806048600846406820F47C10AD
:1009500048600846406840F4E8104860084600686F
:1009600040F08070086000BF4448006810F0007FCD
:10097000FAD04248406820F00300404948600846E9
:10098000406840F00200486000BF3C48406800F00A
:100990000C000828F9D10CBD10B5FFF793FF10BD6E
:1009A00010B53648006840F0010034490860084638
:1009B0004068344908403149486008460068324977
:1009C00008402E4908600846006820F4802008602E
:1009D0000846406820F4FE0048604FF41F0088601D
:1009E000FFF7DAFF4FF000602849086010BD10B52E
:1009F000002100200022214B5B6803F00C0121B193
:100A0000042906D0082928D107E0214B214C236076
:100A100027E01F4B1F4C236023E0184B5B6803F457
:100A20007010164B5B6803F48032022303EB904096
:100A300022B9194B4343174C23600DE00F4B5B6801
:100A400013F4003F04D0144B4343124C236003E0E3
:100A50000F4B43430F4C236003E00D4B0D4C2360C1
:100A600000BF00BF054B5B68C3F303130B4CE15C95
:100A7000084B1B68CB40074C236010BD00100240A0
:100A8000002002400000FFF8FFFFF6FE08ED00E046
:100A900000127A001400002000093D001800002018
:100AA00008B501210420FFF7A5FEE020ADF8000005
:100AB00003208DF8020010208DF80300694691484C
:100AC000FFF7E2FB01210820FFF794FE0320ADF8B9
:100AD00000008DF8020028208DF8030069468A483E
:100AE000FFF7D2FB08BD08B501210420FFF782FE05
:100AF0001020ADF800008DF8030001208DF80200F1
:100B000069468048FFF7C0FB01210820FFF772FE0D
:100B100040F68450ADF8000010208DF8030001204D
:100B20008DF8020069467848FFF7AEFB1021754842
:100B3000FFF755FC04217448FFF751FC4FF4806126
:100B40007148FFF74CFC4FF400616F48FFF747FC1A
:100B500080216D48FFF743FC80216B48FFF73FFC85
:100B60004FF480716848FFF73AFC08BD01B502E018
:100B70000098401E009000980028F9D108BD10B5DB
:100B800020216048FFF72BFC40215E48FFF729FC3D
:100B900080215C48FFF725FC02215B48FFF705FC3C
:100BA00001280AD14CF25030FFF7E0FF02215648ED
:100BB000FFF7FBFB012812D110BD01215248FFF7BE
:100BC000F4FB01280BD14CF25030FFF7CFFF01218D
:100BD0004D48FFF7EAFB012801D10620ECE7202170
:100BE0004848FFF7FEFB40214648FFF7F8FB80210D
:100BF0004448FFF7F6FB02214348FFF7D6FB0128E4
:100C00000BD14CF25030FFF7B1FF02213E48FFF705
:100C1000CCFB012813D10220CEE701213A48FFF78F
:100C2000C4FB01280BD14CF25030FFF79FFF01218C
:100C30003548FFF7BAFB012801D10520BCE7202188
:100C40003048FFF7CEFB40212E48FFF7CAFB80213A
:100C50002C48FFF7C4FB02212B48FFF7A6FB012815
:100C60000BD14CF25030FFF781FF02212648FFF7ED
:100C70009CFB012813D103209EE701212248FFF7A6
:100C800094FB01280BD14CF25030FFF76FFF01218C
:100C90001D48FFF78AFB012801D104208CE72021A1
:100CA0001848FFF79CFB40211648FFF798FB80216E
:100CB0001448FFF794FB02211348FFF776FB012845
:100CC0000BD14CF25030FFF751FF02210E48FFF7D5
:100CD0006CFB012813D100206EE701210A48FFF7C1
:100CE00064FB01280BD14CF25030FFF73FFF01218C
:100CF0000548FFF75AFB012801D100205CE70020DE
:100D00005AE7000000080140000C014008B501212D
:100D10000420FFF76FFD4FF48050ADF80000102065
:100D20008DF8030001208DF8020069464648FFF760
:100D3000ABFA01210820FFF75DFD4FF49050ADF8AC
:100D4000000010208DF8030001208DF80200694694
:100D50003E48FFF799FA01211020FFF74BFD4FF4B1
:100D6000C040ADF8000010208DF8030001208DF880
:100D7000020069463648FFF787FA08BD2DE9F041C1
:100D800004460D4645EA0426002726E016F4004FE7
:100D90000FD04FF480512C48FFF721FB4FF48051C6
:100DA0002A48FFF71EFB4FF480512848FFF717FB36
:100DB0000EE04FF480512448FFF713FB4FF48051AD
:100DC0002248FFF70EFB4FF480512048FFF707FB46
:100DD0004FF6FF7000EA46067F1C102FD6DBBDE8F9
:100DE000F0812DE9F04104460D4645EA042600272E
:100DF00026E016F4004F0FD04FF480411448FFF75F
:100E0000EEFA4FF400511248FFF7EBFA4FF400519D
:100E10000F48FFF7E4FA0EE04FF480410C48FFF76B
:100E2000E0FA4FF400510A48FFF7DBFA4FF40051A3
:100E30000748FFF7D4FA4FF6FF7000EA46067F1C1A
:100E4000102FD6DBBDE8F08100080140000C014006
:100E50000010014096B0002011901090012501244F
:100E600000260B9003200A9007200990022008908A
:100E700001274FF005084FF003094FF0050A002045
:100E800007900690059004908346012002900190FF
:100E9000FFF786FD00F0DCFBFFF738FFFFF700FEF1
:100EA000FFF721FE00F0C2FCFFF769FE1090AFE3F0
:100EB000F84800681590F84800681490F7480068F2
:100EC0001390F7480068129000F006FC00F05BFCFD
:100ED000022D0FD1012C0DD166B9F24800680F9098
:100EE000F14800680E90EE4800680D90EB480068ED
:100EF0000C90BFE0022D16D1012C14D1012E12D17D
:100F0000BBF1000F03D0E74800680F9001E010200C
:100F10000F90E54800680E90E14800680D90DF48AA
:100F200000680C90A6E0022D16D1012C14D1022EDF
:100F300012D1DC4800680F90BBF1000F03D0DA48F3
:100F400000680E9001E010200E90D54800680D90CA
:100F5000D24800680C908DE0022D16D1012C14D1DE
:100F6000032E12D1CF4800680F90CF4800680E9032
:100F7000BBF1000F03D0CA4800680D9001E01020BB
:100F80000D90C64800680C9074E0022D16D1012C1B
:100F900014D1042E12D1C34800680F90C2480068D3
:100FA0000E90BF4800680D90BBF1000F03D0BB4806
:100FB00000680C905EE010200C905BE0022D0AD1DE
:100FC000022C08D13EB90F97CDF83880CDF8349077
:100FD000CDF830A04EE0022D11D1022C0FD1012E00
:100FE0000DD1BBF1000F01D00F9701E010200F9041
:100FF000CDF83880CDF83490CDF830A03AE0022D0D
:1010000011D1022C0FD1022E0DD10F97BBF1000F81
:1010100002D0CDF8388001E010200E90CDF8349049
:10102000CDF830A026E0022D11D1022C0FD1032ED5
:101030000DD10F97CDF83880BBF1000F02D0CDF85D
:10104000349001E010200D90CDF830A012E0022D78
:1010500010D1022C0ED1042E0CD10F97CDF8388070
:10106000CDF83490BBF1000F02D0CDF830A001E0F4
:1010700010200C90012C04D0022C0BD0032C1BD17F
:1010800011E000200B9003200A9007200990022015
:10109000089012E000200B9003200A90072009908E
:1010A0000520089009E000200B9002200A900520FE
:1010B00009900720089000E000BF00BF754915980F
:1010C000096888420ED1744914980968884209D188
:1010D000724913980968884204D1714912980968C5
:1010E000884275D06FEA0B0B012D16D1022C05D169
:1010F0006E480068401C6D4908600DE0019850B9C9
:1011000000206A4908606A4908606A4908606A49BB
:1011100008600120019000BF00BF012D06D0022D04
:101120002FD0032D3CD0042D53D148E061480068F6
:101130000A2807D100205F4908605F480068401C0A
:101140005D490860594800680A2807D100205749BE
:10115000086057480068401C55490860574A554B7D
:101160001B68D15C544B1B68D05CFFF707FE534AE9
:101170004E4B1B68D15C4E4B1B68D05CFFF731FEB9
:1011800032E04E4B0E9A995C0F9A985CFFF7F6FD91
:101190004A4B0C9A995C0D9A985CFFF722FE23E06B
:1011A000464B089A995C099A985CFFF71AFE434BE4
:1011B0000A9A995C0B9A985CFFF7E0FD14E0DDE970
:1011C0000410FFF70EFEDDE90610FFF7D7FD0BE078
:1011D0000BE03A4A117C107CFFF703FE374A117C82
:1011E000107CFFF7CBFD00BF00BFFFF7C8FC1090DD
:1011F000DDE9101088424CD01098072870D2DFE843
:1012000000F06F0412283598F000012401200290AC
:101210000026042D01DA6D1C00E00125102128486C
:10122000FFF7DFF827E1012002900026032C01DA06
:10123000641C00E00124032C06D1022D03D0042DF0
:1012400001D0012D00D1012404211E48FFF7C9F867
:1012500011E101200290042E01DA761C00E0012643
:101260004FF480611748FFF7BCF804E1022D40D12C
:10127000012C3ED1012E06D0022E25D0032E29D0DE
:10128000042E34D12DE007480068401C0549086051
:101290002EE0F1E04000002044000020500000203B
:1012A000540000204C00002048000020580000207E
:1012B0005C00002060000020640000202800002066
:1012C00000080140000C0140D2480068401CD14990
:1012D00008600DE0D0480068401CCF49086007E076
:1012E000A9E0CE480068401CCC49086000E000BF7F
:1012F00019E0022D17D1022C15D1012E06D0022E95
:1013000006D0032E07D0042E0BD107E07F1C09E086
:1013100008F1010806E009F1010903E00AF1010AF8
:1013200000E000BF00BF4FF40061BD48FFF759F86F
:10133000A1E0022D3CD1012C3AD1012E06D0022E83
:1013400010D0032E1AD0042E30D123E0B548006807
:1013500010B90A20B3490860B2480068401EB1497C
:10136000086024E0AB48006810B90A20A949086069
:10137000A8480068401EA749086018E0A648006811
:1013800010B90620A4490860A3480068401EA2497D
:1013900008600CE0A148006810B90A209F49086065
:1013A0009E480068401E9D49086000E000BF2BE099
:1013B000022D29D1022C27D1012E06D0022E08D0D1
:1013C000032E0FD0042E1DD114E007B90A277F1E6B
:1013D00019E0B8F1000F01D14FF00A08A8F1010897
:1013E00011E016E0B9F1000F01D14FF00A09A9F19F
:1013F000010908E0BAF1000F01D14FF00A0AAAF181
:10140000010A00E000BF00BF80218548FEF7E9FF28
:1014100031E0002001900298012803DA0298401C74
:10142000029001E00020029000264FF480717C4879
:10143000FEF7D7FF1FE010217B48FEF7D0FF042105
:101440007748FEF7CCFF4FF480617548FEF7C7FF81
:101450004FF400617248FEF7C2FF80217048FEF72A
:10146000BEFF80216E48FEF7BAFF4FF480716C48D2
:10147000FEF7B5FF00BF00BF1098119069480068E3
:1014800087422AD163480068804526D162480068B7
:10149000814522D16148006882451ED110216248F1
:1014A000FEF79FFF04215E48FEF79BFF4FF480612B
:1014B0005B48FEF796FF4FF400615948FEF791FF35
:1014C00080215748FEF78DFF80215548FEF789FFA0
:1014D0004FF480715248FEF784FF012C04D177202D
:1014E00007903E20069005E0022C03D1742007905F
:1014F0005E200690029810B17820049001E06D20E3
:1015000004900298F0B3042D3CD1012C06D1E103E4
:101510004648FEF74AFF401C039009E0022C07D121
:10152000304606EBD0714910A6EB4101491C0391EE
:101530000398012802D0022868D134E038200590B1
:1015400001213948FEF74BFF4FF47A6000F0ACF808
:1015500001213548FEF745FF02213348FEF73FFFE2
:101560004FF47A6000F0A0F802212F48FEF739FF0F
:1015700004212D48FEF733FF4FF47A6000F094F811
:10158000042100E044E02848FEF72BFF082126480C
:10159000FEF725FF4FF47A6000F086F80821224814
:1015A000FEF71FFF33E00E20059008211E48FEF7CE
:1015B00016FF4FF47A6000F077F808211A48FEF71A
:1015C00010FF04211848FEF70AFF4FF47A6000F07C
:1015D0006BF804211448FEF704FF02211248FEF7BD
:1015E000FEFE4FF47A6000F05FF802210E48FEF72D
:1015F000F8FE01210C48FEF7F2FE4FF47A6000F08D
:1016000053F801210848FEF7ECFE00E000BF00BFE0
:101610004EE400004800002054000020500000204C
:10162000000C01404C000020000801400010014067
:10163000704700BFFEE700BFFEE700BFFEE700BF48
:10164000FEE770477047704710B500F037F810BDDF
:1016500030B566480068664AB0FBF2F1481EB0F14A
:10166000807F01D301201BE0481E4FF0E022506133
:1016700050170F22002807DA13071D0E5D4B00F0EC
:101680000F04241F1D5503E013071C0E5A4B1C5456
:1016900000BF00204FF0E022906107201061002081
:1016A00008B100BFFEE730BD01B55449009808609D
:1016B00000BF524800680028FBD108BD50480068B0
:1016C000401C4F4908604D48006820B14B480068F5
:1016D000401E4A49086070474948006844498842AA
:1016E00007D900204649086046480068401C454923
:1016F0000860444800680A2807D300204149086070
:1017000041480068401C404908603F48006806287E
:1017100007D300203C4908603C480068401C3B4916
:1017200008603A4800680A2807D300203749086053
:1017300037480068401C364908603548006806286C
:1017400007D300203249086032480068401C314904
:101750000860304800680A2807D300202D49086037
:101760002D480068401C2C4908602A48006804285D
:1017700008D329480068022804D3002025490860BE
:1017800025490860704725480068092807D90020C6
:101790002249086022480068401C2149086020480E
:1017A0000068062807D300201D4908601D4800680E
:1017B000401C1C4908601B480068092807D9002004
:1017C0001849086018480068401C17490860164806
:1017D0000068092808D313480068092804D30020AA
:1017E000114908600F49086070470000140000208C
:1017F00040420F0018ED00E000E400E06800002027
:101800003C00002040000020440000205000002048
:1018100054000020480000204C0000205800002008
:101820005C000020600000206400002008B5012159
:101830000420FEF7DFFF0F20ADF8000010208DF828
:10184000030003208DF8020069461348FEF71CFDD3
:1018500001211020FEF7CEFF4FF40040ADF800004C
:1018600003208DF8020028208DF8030069460B48FC
:10187000FEF70AFD01210848FEF7B3FD02210648E4
:10188000FEF7AFFD04210448FEF7ABFD0821024836
:10189000FEF7A7FD08BD0000000801400010014050
:1018A000704770477047754600F028F8AE4605004F
:1018B0006946534620F00700854618B020B5FEF76C
:1018C00071FCBDE820404FF000064FF000074FF0DC
:1018D00000084FF0000B21F00701AC46ACE8C0094E
:1018E000ACE8C009ACE8C009ACE8C0098D46704757
:1018F0000446AFF300802046FEF73FFC00487047E7
:101900006C00002001491820ABBEFEE72600020053
:101910007047000034190008000000206C0000002F
:1019200028010008A01900086C00002064060000CF
:101930004401000800000000010203040102030446
:10194000060708090204060800A24A040000000075
:101950000000000001020304060708093F065B4F70
:10196000666D7D077F6F777C395E797100000000BE
:101970000000000000000000000000000400000063
:101980000100000003000000030000000000000050
:101990000000000000000000000000000000000047
:040000050800018965
:00000001FF
